{
  "_format": "hh-sol-artifact-1",
  "contractName": "DecentralizedInsurance",
  "sourceName": "contracts/Insurance.sol",
  "abi": [
    {
      "inputs": [],
      "stateMutability": "nonpayable",
      "type": "constructor"
    },
    {
      "inputs": [],
      "name": "ClaimAlreadyProcessed",
      "type": "error"
    },
    {
      "inputs": [],
      "name": "ClaimExceedsCoverage",
      "type": "error"
    },
    {
      "inputs": [],
      "name": "ClaimNotActive",
      "type": "error"
    },
    {
      "inputs": [],
      "name": "ClaimNotFound",
      "type": "error"
    },
    {
      "inputs": [],
      "name": "InsufficientFunds",
      "type": "error"
    },
    {
      "inputs": [],
      "name": "InvalidAmount",
      "type": "error"
    },
    {
      "inputs": [],
      "name": "InvalidPolicy",
      "type": "error"
    },
    {
      "inputs": [],
      "name": "NotAuthorized",
      "type": "error"
    },
    {
      "inputs": [],
      "name": "NotPolicyOwner",
      "type": "error"
    },
    {
      "inputs": [],
      "name": "PaymentFailed",
      "type": "error"
    },
    {
      "inputs": [],
      "name": "PolicyExpired",
      "type": "error"
    },
    {
      "inputs": [],
      "name": "PolicyLimitReached",
      "type": "error"
    },
    {
      "inputs": [],
      "name": "PolicyNotActive",
      "type": "error"
    },
    {
      "inputs": [],
      "name": "PolicyNotFound",
      "type": "error"
    },
    {
      "anonymous": false,
      "inputs": [
        {
          "indexed": true,
          "internalType": "address",
          "name": "assessor",
          "type": "address"
        }
      ],
      "name": "AssessorAdded",
      "type": "event"
    },
    {
      "anonymous": false,
      "inputs": [
        {
          "indexed": true,
          "internalType": "address",
          "name": "assessor",
          "type": "address"
        }
      ],
      "name": "AssessorRemoved",
      "type": "event"
    },
    {
      "anonymous": false,
      "inputs": [
        {
          "indexed": true,
          "internalType": "uint256",
          "name": "claimId",
          "type": "uint256"
        },
        {
          "indexed": true,
          "internalType": "uint256",
          "name": "policyId",
          "type": "uint256"
        },
        {
          "indexed": false,
          "internalType": "uint256",
          "name": "payoutAmount",
          "type": "uint256"
        }
      ],
      "name": "ClaimApproved",
      "type": "event"
    },
    {
      "anonymous": false,
      "inputs": [
        {
          "indexed": true,
          "internalType": "uint256",
          "name": "claimId",
          "type": "uint256"
        },
        {
          "indexed": true,
          "internalType": "uint256",
          "name": "policyId",
          "type": "uint256"
        },
        {
          "indexed": false,
          "internalType": "string",
          "name": "reason",
          "type": "string"
        }
      ],
      "name": "ClaimRejected",
      "type": "event"
    },
    {
      "anonymous": false,
      "inputs": [
        {
          "indexed": true,
          "internalType": "uint256",
          "name": "claimId",
          "type": "uint256"
        },
        {
          "indexed": false,
          "internalType": "enum DecentralizedInsurance.ClaimStatus",
          "name": "status",
          "type": "uint8"
        },
        {
          "indexed": false,
          "internalType": "string",
          "name": "reason",
          "type": "string"
        }
      ],
      "name": "ClaimStatusUpdated",
      "type": "event"
    },
    {
      "anonymous": false,
      "inputs": [
        {
          "indexed": true,
          "internalType": "uint256",
          "name": "claimId",
          "type": "uint256"
        },
        {
          "indexed": true,
          "internalType": "uint256",
          "name": "policyId",
          "type": "uint256"
        },
        {
          "indexed": true,
          "internalType": "address",
          "name": "claimant",
          "type": "address"
        },
        {
          "indexed": false,
          "internalType": "uint256",
          "name": "claimAmount",
          "type": "uint256"
        },
        {
          "indexed": false,
          "internalType": "string",
          "name": "description",
          "type": "string"
        }
      ],
      "name": "ClaimSubmitted",
      "type": "event"
    },
    {
      "anonymous": false,
      "inputs": [
        {
          "indexed": true,
          "internalType": "address",
          "name": "by",
          "type": "address"
        }
      ],
      "name": "ContractPaused",
      "type": "event"
    },
    {
      "anonymous": false,
      "inputs": [
        {
          "indexed": true,
          "internalType": "address",
          "name": "by",
          "type": "address"
        }
      ],
      "name": "ContractUnpaused",
      "type": "event"
    },
    {
      "anonymous": false,
      "inputs": [
        {
          "indexed": true,
          "internalType": "address",
          "name": "from",
          "type": "address"
        },
        {
          "indexed": false,
          "internalType": "uint256",
          "name": "amount",
          "type": "uint256"
        }
      ],
      "name": "FundsDeposited",
      "type": "event"
    },
    {
      "anonymous": false,
      "inputs": [
        {
          "indexed": true,
          "internalType": "address",
          "name": "to",
          "type": "address"
        },
        {
          "indexed": false,
          "internalType": "uint256",
          "name": "amount",
          "type": "uint256"
        }
      ],
      "name": "FundsWithdrawn",
      "type": "event"
    },
    {
      "anonymous": false,
      "inputs": [
        {
          "indexed": true,
          "internalType": "uint256",
          "name": "policyId",
          "type": "uint256"
        },
        {
          "indexed": true,
          "internalType": "address",
          "name": "policyHolder",
          "type": "address"
        },
        {
          "indexed": false,
          "internalType": "uint256",
          "name": "refundAmount",
          "type": "uint256"
        }
      ],
      "name": "PolicyCancelled",
      "type": "event"
    },
    {
      "anonymous": false,
      "inputs": [
        {
          "indexed": true,
          "internalType": "uint256",
          "name": "policyId",
          "type": "uint256"
        },
        {
          "indexed": true,
          "internalType": "address",
          "name": "policyHolder",
          "type": "address"
        },
        {
          "indexed": false,
          "internalType": "uint256",
          "name": "premium",
          "type": "uint256"
        },
        {
          "indexed": false,
          "internalType": "uint256",
          "name": "coverage",
          "type": "uint256"
        },
        {
          "indexed": false,
          "internalType": "enum DecentralizedInsurance.PolicyType",
          "name": "policyType",
          "type": "uint8"
        }
      ],
      "name": "PolicyCreated",
      "type": "event"
    },
    {
      "anonymous": false,
      "inputs": [
        {
          "indexed": true,
          "internalType": "uint256",
          "name": "policyId",
          "type": "uint256"
        },
        {
          "indexed": false,
          "internalType": "uint256",
          "name": "newExpiryDate",
          "type": "uint256"
        }
      ],
      "name": "PolicyRenewed",
      "type": "event"
    },
    {
      "stateMutability": "payable",
      "type": "fallback"
    },
    {
      "inputs": [],
      "name": "CLAIM_WINDOW",
      "outputs": [
        {
          "internalType": "uint256",
          "name": "",
          "type": "uint256"
        }
      ],
      "stateMutability": "view",
      "type": "function"
    },
    {
      "inputs": [],
      "name": "MAX_COVERAGE_MULTIPLIER",
      "outputs": [
        {
          "internalType": "uint256",
          "name": "",
          "type": "uint256"
        }
      ],
      "stateMutability": "view",
      "type": "function"
    },
    {
      "inputs": [],
      "name": "MAX_POLICIES_PER_USER",
      "outputs": [
        {
          "internalType": "uint256",
          "name": "",
          "type": "uint256"
        }
      ],
      "stateMutability": "view",
      "type": "function"
    },
    {
      "inputs": [],
      "name": "POLICY_DURATION",
      "outputs": [
        {
          "internalType": "uint256",
          "name": "",
          "type": "uint256"
        }
      ],
      "stateMutability": "view",
      "type": "function"
    },
    {
      "inputs": [
        {
          "internalType": "address",
          "name": "_assessor",
          "type": "address"
        }
      ],
      "name": "addAssessor",
      "outputs": [],
      "stateMutability": "nonpayable",
      "type": "function"
    },
    {
      "inputs": [
        {
          "internalType": "uint256",
          "name": "_claimId",
          "type": "uint256"
        },
        {
          "internalType": "string",
          "name": "_reason",
          "type": "string"
        }
      ],
      "name": "approveClaim",
      "outputs": [],
      "stateMutability": "nonpayable",
      "type": "function"
    },
    {
      "inputs": [
        {
          "internalType": "address",
          "name": "",
          "type": "address"
        }
      ],
      "name": "authorizedAssessors",
      "outputs": [
        {
          "internalType": "bool",
          "name": "",
          "type": "bool"
        }
      ],
      "stateMutability": "view",
      "type": "function"
    },
    {
      "inputs": [
        {
          "internalType": "uint256",
          "name": "_policyId",
          "type": "uint256"
        }
      ],
      "name": "cancelPolicy",
      "outputs": [],
      "stateMutability": "nonpayable",
      "type": "function"
    },
    {
      "inputs": [],
      "name": "claimCounter",
      "outputs": [
        {
          "internalType": "uint256",
          "name": "",
          "type": "uint256"
        }
      ],
      "stateMutability": "view",
      "type": "function"
    },
    {
      "inputs": [
        {
          "internalType": "address",
          "name": "",
          "type": "address"
        },
        {
          "internalType": "uint256",
          "name": "",
          "type": "uint256"
        }
      ],
      "name": "claimVotes",
      "outputs": [
        {
          "internalType": "bool",
          "name": "",
          "type": "bool"
        }
      ],
      "stateMutability": "view",
      "type": "function"
    },
    {
      "inputs": [
        {
          "internalType": "uint256",
          "name": "",
          "type": "uint256"
        }
      ],
      "name": "claims",
      "outputs": [
        {
          "internalType": "uint256",
          "name": "id",
          "type": "uint256"
        },
        {
          "internalType": "uint256",
          "name": "policyId",
          "type": "uint256"
        },
        {
          "internalType": "address payable",
          "name": "claimant",
          "type": "address"
        },
        {
          "internalType": "uint256",
          "name": "claimAmount",
          "type": "uint256"
        },
        {
          "internalType": "enum DecentralizedInsurance.ClaimStatus",
          "name": "status",
          "type": "uint8"
        },
        {
          "internalType": "string",
          "name": "description",
          "type": "string"
        },
        {
          "internalType": "uint256",
          "name": "submittedAt",
          "type": "uint256"
        },
        {
          "internalType": "uint256",
          "name": "processedAt",
          "type": "uint256"
        },
        {
          "internalType": "bytes",
          "name": "evidence",
          "type": "bytes"
        }
      ],
      "stateMutability": "view",
      "type": "function"
    },
    {
      "inputs": [],
      "name": "contractPaused",
      "outputs": [
        {
          "internalType": "bool",
          "name": "",
          "type": "bool"
        }
      ],
      "stateMutability": "view",
      "type": "function"
    },
    {
      "inputs": [
        {
          "internalType": "uint256",
          "name": "_coverageAmount",
          "type": "uint256"
        },
        {
          "internalType": "enum DecentralizedInsurance.PolicyType",
          "name": "_policyType",
          "type": "uint8"
        },
        {
          "internalType": "uint256",
          "name": "_duration",
          "type": "uint256"
        }
      ],
      "name": "createPolicy",
      "outputs": [],
      "stateMutability": "payable",
      "type": "function"
    },
    {
      "inputs": [],
      "name": "depositFunds",
      "outputs": [],
      "stateMutability": "payable",
      "type": "function"
    },
    {
      "inputs": [
        {
          "internalType": "uint256",
          "name": "_claimId",
          "type": "uint256"
        }
      ],
      "name": "getClaimDetails",
      "outputs": [
        {
          "internalType": "uint256",
          "name": "id",
          "type": "uint256"
        },
        {
          "internalType": "uint256",
          "name": "policyId",
          "type": "uint256"
        },
        {
          "internalType": "address",
          "name": "claimant",
          "type": "address"
        },
        {
          "internalType": "uint256",
          "name": "claimAmount",
          "type": "uint256"
        },
        {
          "internalType": "enum DecentralizedInsurance.ClaimStatus",
          "name": "status",
          "type": "uint8"
        },
        {
          "internalType": "string",
          "name": "description",
          "type": "string"
        },
        {
          "internalType": "uint256",
          "name": "submittedAt",
          "type": "uint256"
        },
        {
          "internalType": "uint256",
          "name": "processedAt",
          "type": "uint256"
        }
      ],
      "stateMutability": "view",
      "type": "function"
    },
    {
      "inputs": [],
      "name": "getContractBalance",
      "outputs": [
        {
          "internalType": "uint256",
          "name": "",
          "type": "uint256"
        }
      ],
      "stateMutability": "view",
      "type": "function"
    },
    {
      "inputs": [
        {
          "internalType": "uint256",
          "name": "_policyId",
          "type": "uint256"
        }
      ],
      "name": "getPolicyClaims",
      "outputs": [
        {
          "internalType": "uint256[]",
          "name": "",
          "type": "uint256[]"
        }
      ],
      "stateMutability": "view",
      "type": "function"
    },
    {
      "inputs": [
        {
          "internalType": "uint256",
          "name": "_policyId",
          "type": "uint256"
        }
      ],
      "name": "getPolicyDetails",
      "outputs": [
        {
          "internalType": "uint256",
          "name": "id",
          "type": "uint256"
        },
        {
          "internalType": "address",
          "name": "policyHolder",
          "type": "address"
        },
        {
          "internalType": "uint256",
          "name": "premium",
          "type": "uint256"
        },
        {
          "internalType": "uint256",
          "name": "coverageAmount",
          "type": "uint256"
        },
        {
          "internalType": "bool",
          "name": "isActive",
          "type": "bool"
        },
        {
          "internalType": "uint256",
          "name": "createdAt",
          "type": "uint256"
        },
        {
          "internalType": "uint256",
          "name": "expiresAt",
          "type": "uint256"
        },
        {
          "internalType": "uint256",
          "name": "claimCount",
          "type": "uint256"
        },
        {
          "internalType": "enum DecentralizedInsurance.PolicyType",
          "name": "policyType",
          "type": "uint8"
        },
        {
          "internalType": "bool",
          "name": "isExpired",
          "type": "bool"
        }
      ],
      "stateMutability": "view",
      "type": "function"
    },
    {
      "inputs": [
        {
          "internalType": "address",
          "name": "_user",
          "type": "address"
        }
      ],
      "name": "getUserPolicies",
      "outputs": [
        {
          "internalType": "uint256[]",
          "name": "",
          "type": "uint256[]"
        }
      ],
      "stateMutability": "view",
      "type": "function"
    },
    {
      "inputs": [
        {
          "internalType": "uint256",
          "name": "_policyId",
          "type": "uint256"
        }
      ],
      "name": "isPolicyExpired",
      "outputs": [
        {
          "internalType": "bool",
          "name": "",
          "type": "bool"
        }
      ],
      "stateMutability": "view",
      "type": "function"
    },
    {
      "inputs": [],
      "name": "owner",
      "outputs": [
        {
          "internalType": "address",
          "name": "",
          "type": "address"
        }
      ],
      "stateMutability": "view",
      "type": "function"
    },
    {
      "inputs": [],
      "name": "pauseContract",
      "outputs": [],
      "stateMutability": "nonpayable",
      "type": "function"
    },
    {
      "inputs": [
        {
          "internalType": "uint256",
          "name": "",
          "type": "uint256"
        }
      ],
      "name": "policies",
      "outputs": [
        {
          "internalType": "uint256",
          "name": "id",
          "type": "uint256"
        },
        {
          "internalType": "address",
          "name": "policyHolder",
          "type": "address"
        },
        {
          "internalType": "uint256",
          "name": "premium",
          "type": "uint256"
        },
        {
          "internalType": "uint256",
          "name": "coverageAmount",
          "type": "uint256"
        },
        {
          "internalType": "bool",
          "name": "isActive",
          "type": "bool"
        },
        {
          "internalType": "uint256",
          "name": "createdAt",
          "type": "uint256"
        },
        {
          "internalType": "uint256",
          "name": "expiresAt",
          "type": "uint256"
        },
        {
          "internalType": "uint256",
          "name": "claimCount",
          "type": "uint256"
        },
        {
          "internalType": "enum DecentralizedInsurance.PolicyType",
          "name": "policyType",
          "type": "uint8"
        }
      ],
      "stateMutability": "view",
      "type": "function"
    },
    {
      "inputs": [
        {
          "internalType": "uint256",
          "name": "",
          "type": "uint256"
        },
        {
          "internalType": "uint256",
          "name": "",
          "type": "uint256"
        }
      ],
      "name": "policyClaims",
      "outputs": [
        {
          "internalType": "uint256",
          "name": "",
          "type": "uint256"
        }
      ],
      "stateMutability": "view",
      "type": "function"
    },
    {
      "inputs": [],
      "name": "policyCounter",
      "outputs": [
        {
          "internalType": "uint256",
          "name": "",
          "type": "uint256"
        }
      ],
      "stateMutability": "view",
      "type": "function"
    },
    {
      "inputs": [],
      "name": "policyManager",
      "outputs": [
        {
          "internalType": "address",
          "name": "",
          "type": "address"
        }
      ],
      "stateMutability": "view",
      "type": "function"
    },
    {
      "inputs": [
        {
          "internalType": "uint256",
          "name": "_claimId",
          "type": "uint256"
        },
        {
          "internalType": "string",
          "name": "_reason",
          "type": "string"
        }
      ],
      "name": "rejectClaim",
      "outputs": [],
      "stateMutability": "nonpayable",
      "type": "function"
    },
    {
      "inputs": [
        {
          "internalType": "address",
          "name": "_assessor",
          "type": "address"
        }
      ],
      "name": "removeAssessor",
      "outputs": [],
      "stateMutability": "nonpayable",
      "type": "function"
    },
    {
      "inputs": [
        {
          "internalType": "uint256",
          "name": "_policyId",
          "type": "uint256"
        },
        {
          "internalType": "uint256",
          "name": "_duration",
          "type": "uint256"
        }
      ],
      "name": "renewPolicy",
      "outputs": [],
      "stateMutability": "payable",
      "type": "function"
    },
    {
      "inputs": [
        {
          "internalType": "address",
          "name": "_newManager",
          "type": "address"
        }
      ],
      "name": "setPolicyManager",
      "outputs": [],
      "stateMutability": "nonpayable",
      "type": "function"
    },
    {
      "inputs": [
        {
          "internalType": "uint256",
          "name": "_policyId",
          "type": "uint256"
        },
        {
          "internalType": "uint256",
          "name": "_claimAmount",
          "type": "uint256"
        },
        {
          "internalType": "string",
          "name": "_description",
          "type": "string"
        },
        {
          "internalType": "bytes",
          "name": "_evidence",
          "type": "bytes"
        }
      ],
      "name": "submitClaim",
      "outputs": [],
      "stateMutability": "nonpayable",
      "type": "function"
    },
    {
      "inputs": [],
      "name": "totalClaimsPaid",
      "outputs": [
        {
          "internalType": "uint256",
          "name": "",
          "type": "uint256"
        }
      ],
      "stateMutability": "view",
      "type": "function"
    },
    {
      "inputs": [],
      "name": "totalPremiumsCollected",
      "outputs": [
        {
          "internalType": "uint256",
          "name": "",
          "type": "uint256"
        }
      ],
      "stateMutability": "view",
      "type": "function"
    },
    {
      "inputs": [],
      "name": "unpauseContract",
      "outputs": [],
      "stateMutability": "nonpayable",
      "type": "function"
    },
    {
      "inputs": [
        {
          "internalType": "address",
          "name": "",
          "type": "address"
        },
        {
          "internalType": "uint256",
          "name": "",
          "type": "uint256"
        }
      ],
      "name": "userPolicies",
      "outputs": [
        {
          "internalType": "uint256",
          "name": "",
          "type": "uint256"
        }
      ],
      "stateMutability": "view",
      "type": "function"
    },
    {
      "inputs": [
        {
          "internalType": "uint256",
          "name": "_claimId",
          "type": "uint256"
        },
        {
          "internalType": "bool",
          "name": "_approve",
          "type": "bool"
        }
      ],
      "name": "voteOnClaim",
      "outputs": [],
      "stateMutability": "nonpayable",
      "type": "function"
    },
    {
      "inputs": [
        {
          "internalType": "uint256",
          "name": "amount",
          "type": "uint256"
        }
      ],
      "name": "withdrawFunds",
      "outputs": [],
      "stateMutability": "nonpayable",
      "type": "function"
    },
    {
      "stateMutability": "payable",
      "type": "receive"
    }
  ],
  "bytecode": "0x608060405234801561001057600080fd5b50336000806101000a81548173ffffffffffffffffffffffffffffffffffffffff021916908373ffffffffffffffffffffffffffffffffffffffff16021790555033600160006101000a81548173ffffffffffffffffffffffffffffffffffffffff021916908373ffffffffffffffffffffffffffffffffffffffff160217905550614bf0806100a16000396000f3fe60806040526004361061021e5760003560e01c80638d9fbc9011610123578063b33712c5116100ab578063d3e894831161006f578063d3e8948314610885578063d52c1bea146108ca578063d5370d25146108f5578063e2c41dbc14610932578063f2bc1ecf1461093c57610273565b8063b33712c51461078b578063bac71e00146107a2578063be242a59146107e6578063bff143bb14610802578063cc0380101461083f57610273565b80639f34fc80116100f25780639f34fc801461069e578063a888c2cd146106c9578063ab3dbf3b1461070e578063adde41e114610739578063b20e8bcc1461076257610273565b80638d9fbc90146105f45780638da5cb5b1461061f57806392231ae01461064a5780639b70e2fb1461067357610273565b80633dadde20116101a6578063560eb39411610175578063560eb394146104f95780635a463e96146105365780636532ccf5146105735780636f9fb98a1461059e5780638a67456a146105c957610273565b80633dadde201461044f5780633e2045ea1461047a578063439766ce146104b75780634efa8f17146104ce57610273565b806326db479f116101ed57806326db479f1461037b57806327324a6d146103a45780632ab9a6c3146103cd5780633577a5ad146103e95780633d36adc51461041257610273565b80630ed6a89c146102c3578063155dd5ee146102ec578063192875d71461031557806319ac46141461033e57610273565b36610273573373ffffffffffffffffffffffffffffffffffffffff167f543ba50a5eec5e6178218e364b1d0f396157b3c8fa278522c2cb7fd99407d4743460405161026991906138b9565b60405180910390a2005b3373ffffffffffffffffffffffffffffffffffffffff167f543ba50a5eec5e6178218e364b1d0f396157b3c8fa278522c2cb7fd99407d474346040516102b991906138b9565b60405180910390a2005b3480156102cf57600080fd5b506102ea60048036038101906102e59190613942565b610967565b005b3480156102f857600080fd5b50610313600480360381019061030e9190613982565b610cbb565b005b34801561032157600080fd5b5061033c60048036038101906103379190613a14565b610f4c565b005b34801561034a57600080fd5b5061036560048036038101906103609190613ad2565b61144a565b6040516103729190613bbd565b60405180910390f35b34801561038757600080fd5b506103a2600480360381019061039d9190613ad2565b6114e1565b005b3480156103b057600080fd5b506103cb60048036038101906103c69190613c35565b611673565b005b6103e760048036038101906103e29190613d01565b611bf5565b005b3480156103f557600080fd5b50610410600480360381019061040b9190613a14565b612008565b005b34801561041e57600080fd5b5061043960048036038101906104349190613d54565b61230c565b60405161044691906138b9565b60405180910390f35b34801561045b57600080fd5b5061046461233d565b60405161047191906138b9565b60405180910390f35b34801561048657600080fd5b506104a1600480360381019061049c9190613982565b612343565b6040516104ae9190613bbd565b60405180910390f35b3480156104c357600080fd5b506104cc612493565b005b3480156104da57600080fd5b506104e3612578565b6040516104f091906138b9565b60405180910390f35b34801561050557600080fd5b50610520600480360381019061051b9190613d94565b61257e565b60405161052d91906138b9565b60405180910390f35b34801561054257600080fd5b5061055d60048036038101906105589190613982565b6125af565b60405161056a9190613de3565b60405180910390f35b34801561057f57600080fd5b506105886126b6565b60405161059591906138b9565b60405180910390f35b3480156105aa57600080fd5b506105b36126bc565b6040516105c091906138b9565b60405180910390f35b3480156105d557600080fd5b506105de6126c4565b6040516105eb9190613de3565b60405180910390f35b34801561060057600080fd5b506106096126d7565b60405161061691906138b9565b60405180910390f35b34801561062b57600080fd5b506106346126dc565b6040516106419190613e0d565b60405180910390f35b34801561065657600080fd5b50610671600480360381019061066c9190613ad2565b612700565b005b34801561067f57600080fd5b50610688612823565b60405161069591906138b9565b60405180910390f35b3480156106aa57600080fd5b506106b361282b565b6040516106c091906138b9565b60405180910390f35b3480156106d557600080fd5b506106f060048036038101906106eb9190613982565b612832565b60405161070599989796959493929190613fa5565b60405180910390f35b34801561071a57600080fd5b506107236129bd565b6040516107309190613e0d565b60405180910390f35b34801561074557600080fd5b50610760600480360381019061075b9190613ad2565b6129e3565b005b34801561076e57600080fd5b5061078960048036038101906107849190613982565b612b1b565b005b34801561079757600080fd5b506107a0612fbf565b005b3480156107ae57600080fd5b506107c960048036038101906107c49190613982565b6130a4565b6040516107dd989796959493929190614040565b60405180910390f35b61080060048036038101906107fb9190613d94565b6132a9565b005b34801561080e57600080fd5b5061082960048036038101906108249190613d54565b613599565b6040516108369190613de3565b60405180910390f35b34801561084b57600080fd5b5061086660048036038101906108619190613982565b6135c8565b60405161087c9a9998979695949392919061410d565b60405180910390f35b34801561089157600080fd5b506108ac60048036038101906108a79190613982565b613763565b6040516108c1999897969594939291906141a9565b60405180910390f35b3480156108d657600080fd5b506108df6137eb565b6040516108ec91906138b9565b60405180910390f35b34801561090157600080fd5b5061091c60048036038101906109179190613ad2565b6137f1565b6040516109299190613de3565b60405180910390f35b61093a613811565b005b34801561094857600080fd5b5061095161389b565b60405161095e91906138b9565b60405180910390f35b600b60003373ffffffffffffffffffffffffffffffffffffffff1673ffffffffffffffffffffffffffffffffffffffff16815260200190815260200160002060009054906101000a900460ff16158015610a0d575060008054906101000a900473ffffffffffffffffffffffffffffffffffffffff1673ffffffffffffffffffffffffffffffffffffffff163373ffffffffffffffffffffffffffffffffffffffff1614155b15610a44576040517fea8e4eb500000000000000000000000000000000000000000000000000000000815260040160405180910390fd5b816000811480610a55575060035481115b15610a8c576040517f0455eeee00000000000000000000000000000000000000000000000000000000815260040160405180910390fd5b600073ffffffffffffffffffffffffffffffffffffffff166008600083815260200190815260200160002060020160009054906101000a900473ffffffffffffffffffffffffffffffffffffffff1673ffffffffffffffffffffffffffffffffffffffff1603610b28576040517f0455eeee00000000000000000000000000000000000000000000000000000000815260040160405180910390fd5b600060086000858152602001908152602001600020905060006003811115610b5357610b52613e49565b5b8160040160009054906101000a900460ff166003811115610b7757610b76613e49565b5b14610bae576040517f24fbaa9000000000000000000000000000000000000000000000000000000000815260040160405180910390fd5b600c60003373ffffffffffffffffffffffffffffffffffffffff1673ffffffffffffffffffffffffffffffffffffffff168152602001908152602001600020600085815260200190815260200160002060009054906101000a900460ff1615610c4c576040517f08c379a0000000000000000000000000000000000000000000000000000000008152600401610c4390614282565b60405180910390fd5b6001600c60003373ffffffffffffffffffffffffffffffffffffffff1673ffffffffffffffffffffffffffffffffffffffff168152602001908152602001600020600086815260200190815260200160002060006101000a81548160ff02191690831515021790555050505050565b60008054906101000a900473ffffffffffffffffffffffffffffffffffffffff1673ffffffffffffffffffffffffffffffffffffffff163373ffffffffffffffffffffffffffffffffffffffff1614610d40576040517fea8e4eb500000000000000000000000000000000000000000000000000000000815260040160405180910390fd5b60008111610d7a576040517f2c5211c600000000000000000000000000000000000000000000000000000000815260040160405180910390fd5b80471015610db4576040517f356680b700000000000000000000000000000000000000000000000000000000815260040160405180910390fd5b60006002600454610dc59190614300565b9050808247610dd49190614331565b1015610e15576040517f08c379a0000000000000000000000000000000000000000000000000000000008152600401610e0c906143b1565b60405180910390fd5b60008060009054906101000a900473ffffffffffffffffffffffffffffffffffffffff1673ffffffffffffffffffffffffffffffffffffffff1683604051610e5c90614402565b60006040518083038185875af1925050503d8060008114610e99576040519150601f19603f3d011682016040523d82523d6000602084013e610e9e565b606091505b5050905080610ed9576040517ff499da2000000000000000000000000000000000000000000000000000000000815260040160405180910390fd5b60008054906101000a900473ffffffffffffffffffffffffffffffffffffffff1673ffffffffffffffffffffffffffffffffffffffff167feaff4b37086828766ad3268786972c0cd24259d4c87a80f9d3963a3c3d999b0d84604051610f3f91906138b9565b60405180910390a2505050565b60008054906101000a900473ffffffffffffffffffffffffffffffffffffffff1673ffffffffffffffffffffffffffffffffffffffff163373ffffffffffffffffffffffffffffffffffffffff1614158015610ff65750600160009054906101000a900473ffffffffffffffffffffffffffffffffffffffff1673ffffffffffffffffffffffffffffffffffffffff163373ffffffffffffffffffffffffffffffffffffffff1614155b1561102d576040517fea8e4eb500000000000000000000000000000000000000000000000000000000815260040160405180910390fd5b600660009054906101000a900460ff161561107d576040517f08c379a000000000000000000000000000000000000000000000000000000000815260040161107490614463565b60405180910390fd5b82600081148061108e575060035481115b156110c5576040517f0455eeee00000000000000000000000000000000000000000000000000000000815260040160405180910390fd5b600073ffffffffffffffffffffffffffffffffffffffff166008600083815260200190815260200160002060020160009054906101000a900473ffffffffffffffffffffffffffffffffffffffff1673ffffffffffffffffffffffffffffffffffffffff1603611161576040517f0455eeee00000000000000000000000000000000000000000000000000000000815260040160405180910390fd5b6000600860008681526020019081526020016000209050600060076000836001015481526020019081526020016000209050600060038111156111a7576111a6613e49565b5b8260040160009054906101000a900460ff1660038111156111cb576111ca613e49565b5b14611202576040517f24fbaa9000000000000000000000000000000000000000000000000000000000815260040160405180910390fd5b8060040160009054906101000a900460ff1661124a576040517f8966b51f00000000000000000000000000000000000000000000000000000000815260040160405180910390fd5b8160030154471015611288576040517f356680b700000000000000000000000000000000000000000000000000000000815260040160405180910390fd5b60018260040160006101000a81548160ff021916908360038111156112b0576112af613e49565b5b021790555042826007018190555060008160040160006101000a81548160ff0219169083151502179055508160030154600560008282546112f19190614483565b9250508190555060008260020160009054906101000a900473ffffffffffffffffffffffffffffffffffffffff1673ffffffffffffffffffffffffffffffffffffffff16836003015460405161134690614402565b60006040518083038185875af1925050503d8060008114611383576040519150601f19603f3d011682016040523d82523d6000602084013e611388565b606091505b50509050806113c3576040517ff499da2000000000000000000000000000000000000000000000000000000000815260040160405180910390fd5b867f710fb5235852f4a4481b437dca6fcbe64bcfd263322357142e026e22e2912cd1600188886040516113f8939291906144f3565b60405180910390a28260010154877f4dca51fe62778515537c102a1e70b6860ccf0d30595ecf313f2a901614b6f505856003015460405161143991906138b9565b60405180910390a350505050505050565b6060600960008373ffffffffffffffffffffffffffffffffffffffff1673ffffffffffffffffffffffffffffffffffffffff1681526020019081526020016000208054806020026020016040519081016040528092919081815260200182805480156114d557602002820191906000526020600020905b8154815260200190600101908083116114c1575b50505050509050919050565b60008054906101000a900473ffffffffffffffffffffffffffffffffffffffff1673ffffffffffffffffffffffffffffffffffffffff163373ffffffffffffffffffffffffffffffffffffffff1614611566576040517fea8e4eb500000000000000000000000000000000000000000000000000000000815260040160405180910390fd5b600073ffffffffffffffffffffffffffffffffffffffff168173ffffffffffffffffffffffffffffffffffffffff16036115d5576040517f08c379a00000000000000000000000000000000000000000000000000000000081526004016115cc90614571565b60405180910390fd5b6001600b60008373ffffffffffffffffffffffffffffffffffffffff1673ffffffffffffffffffffffffffffffffffffffff16815260200190815260200160002060006101000a81548160ff0219169083151502179055508073ffffffffffffffffffffffffffffffffffffffff167fe8e4ef51dd340f5cbd702ec41c4063f12958a40b8b22bdf35d6935d6cb5bc30060405160405180910390a250565b600660009054906101000a900460ff16156116c3576040517f08c379a00000000000000000000000000000000000000000000000000000000081526004016116ba90614463565b60405180910390fd5b8560008114806116d4575060025481115b1561170b576040517f720caa4f00000000000000000000000000000000000000000000000000000000815260040160405180910390fd5b600073ffffffffffffffffffffffffffffffffffffffff166007600083815260200190815260200160002060010160009054906101000a900473ffffffffffffffffffffffffffffffffffffffff1673ffffffffffffffffffffffffffffffffffffffff16036117a7576040517f720caa4f00000000000000000000000000000000000000000000000000000000815260040160405180910390fd5b60006007600089815260200190815260200160002090503373ffffffffffffffffffffffffffffffffffffffff168160010160009054906101000a900473ffffffffffffffffffffffffffffffffffffffff1673ffffffffffffffffffffffffffffffffffffffff1614611847576040517ff9d492db00000000000000000000000000000000000000000000000000000000815260040160405180910390fd5b8060040160009054906101000a900460ff1661188f576040517f8966b51f00000000000000000000000000000000000000000000000000000000815260040160405180910390fd5b80600601544211156118cd576040517f9c5bebca00000000000000000000000000000000000000000000000000000000815260040160405180910390fd5b806003015487111561190b576040517fb1adfabf00000000000000000000000000000000000000000000000000000000815260040160405180910390fd5b60008711611945576040517f2c5211c600000000000000000000000000000000000000000000000000000000815260040160405180910390fd5b6003600081548092919061195890614591565b919050555060405180610120016040528060035481526020018981526020013373ffffffffffffffffffffffffffffffffffffffff168152602001888152602001600060038111156119ad576119ac613e49565b5b815260200187878080601f016020809104026020016040519081016040528093929190818152602001838380828437600081840152601f19601f8201169050808301925050505050505081526020014281526020016000815260200185858080601f016020809104026020016040519081016040528093929190818152602001838380828437600081840152601f19601f82011690508083019250505050505050815250600860006003548152602001908152602001600020600082015181600001556020820151816001015560408201518160020160006101000a81548173ffffffffffffffffffffffffffffffffffffffff021916908373ffffffffffffffffffffffffffffffffffffffff1602179055506060820151816003015560808201518160040160006101000a81548160ff02191690836003811115611af657611af5613e49565b5b021790555060a0820151816005019081611b109190614814565b5060c0820151816006015560e08201518160070155610100820151816008019081611b3b9190614941565b50905050806007016000815480929190611b5490614591565b9190505550600a600089815260200190815260200160002060035490806001815401808255809150506001900390600052602060002001600090919091909150553373ffffffffffffffffffffffffffffffffffffffff16886003547fd91ad459d6781ac1a94eb5c677e1aa55ab8d256cae923e543a7e969235a041ca8a8a8a604051611be393929190614a13565b60405180910390a45050505050505050565b600660009054906101000a900460ff1615611c45576040517f08c379a0000000000000000000000000000000000000000000000000000000008152600401611c3c90614463565b60405180910390fd5b60003411611c7f576040517f2c5211c600000000000000000000000000000000000000000000000000000000815260040160405180910390fd5b60008311611cb9576040517f2c5211c600000000000000000000000000000000000000000000000000000000815260040160405180910390fd5b600a34611cc69190614a45565b831115611d08576040517f08c379a0000000000000000000000000000000000000000000000000000000008152600401611cff90614ad3565b60405180910390fd5b6005600960003373ffffffffffffffffffffffffffffffffffffffff1673ffffffffffffffffffffffffffffffffffffffff1681526020019081526020016000208054905010611d84576040517fbacc465600000000000000000000000000000000000000000000000000000000815260040160405180910390fd5b6000808211611d97576301e13380611da7565b6201518082611da69190614a45565b5b905060008142611db79190614483565b905060026000815480929190611dcc90614591565b919050555060405180610120016040528060025481526020013373ffffffffffffffffffffffffffffffffffffffff16815260200134815260200186815260200160011515815260200142815260200182815260200160008152602001856004811115611e3c57611e3b613e49565b5b8152506007600060025481526020019081526020016000206000820151816000015560208201518160010160006101000a81548173ffffffffffffffffffffffffffffffffffffffff021916908373ffffffffffffffffffffffffffffffffffffffff160217905550604082015181600201556060820151816003015560808201518160040160006101000a81548160ff02191690831515021790555060a0820151816005015560c0820151816006015560e082015181600701556101008201518160080160006101000a81548160ff02191690836004811115611f2357611f22613e49565b5b0217905550905050600960003373ffffffffffffffffffffffffffffffffffffffff1673ffffffffffffffffffffffffffffffffffffffff16815260200190815260200160002060025490806001815401808255809150506001900390600052602060002001600090919091909150553460046000828254611fa59190614483565b925050819055503373ffffffffffffffffffffffffffffffffffffffff166002547f3edba2e19b9d9b9eef059dcd4da301c7faa18a5b2554e7ac80b7c25413dac2c5348888604051611ff993929190614af3565b60405180910390a35050505050565b60008054906101000a900473ffffffffffffffffffffffffffffffffffffffff1673ffffffffffffffffffffffffffffffffffffffff163373ffffffffffffffffffffffffffffffffffffffff16141580156120b25750600160009054906101000a900473ffffffffffffffffffffffffffffffffffffffff1673ffffffffffffffffffffffffffffffffffffffff163373ffffffffffffffffffffffffffffffffffffffff1614155b156120e9576040517fea8e4eb500000000000000000000000000000000000000000000000000000000815260040160405180910390fd5b8260008114806120fa575060035481115b15612131576040517f0455eeee00000000000000000000000000000000000000000000000000000000815260040160405180910390fd5b600073ffffffffffffffffffffffffffffffffffffffff166008600083815260200190815260200160002060020160009054906101000a900473ffffffffffffffffffffffffffffffffffffffff1673ffffffffffffffffffffffffffffffffffffffff16036121cd576040517f0455eeee00000000000000000000000000000000000000000000000000000000815260040160405180910390fd5b6000600860008681526020019081526020016000209050600060038111156121f8576121f7613e49565b5b8160040160009054906101000a900460ff16600381111561221c5761221b613e49565b5b14612253576040517f24fbaa9000000000000000000000000000000000000000000000000000000000815260040160405180910390fd5b60028160040160006101000a81548160ff0219169083600381111561227b5761227a613e49565b5b0217905550428160070181905550847f710fb5235852f4a4481b437dca6fcbe64bcfd263322357142e026e22e2912cd1600286866040516122be939291906144f3565b60405180910390a28060010154857f987a9265e28dab5c8db475f9789a8c4be703afd3a07a4955a2aba65365a12de286866040516122fd929190614b2a565b60405180910390a35050505050565b6009602052816000526040600020818154811061232857600080fd5b90600052602060002001600091509150505481565b60045481565b6060816000811480612356575060025481115b1561238d576040517f720caa4f00000000000000000000000000000000000000000000000000000000815260040160405180910390fd5b600073ffffffffffffffffffffffffffffffffffffffff166007600083815260200190815260200160002060010160009054906101000a900473ffffffffffffffffffffffffffffffffffffffff1673ffffffffffffffffffffffffffffffffffffffff1603612429576040517f720caa4f00000000000000000000000000000000000000000000000000000000815260040160405180910390fd5b600a600084815260200190815260200160002080548060200260200160405190810160405280929190818152602001828054801561248657602002820191906000526020600020905b815481526020019060010190808311612472575b5050505050915050919050565b60008054906101000a900473ffffffffffffffffffffffffffffffffffffffff1673ffffffffffffffffffffffffffffffffffffffff163373ffffffffffffffffffffffffffffffffffffffff1614612518576040517fea8e4eb500000000000000000000000000000000000000000000000000000000815260040160405180910390fd5b6001600660006101000a81548160ff0219169083151502179055503373ffffffffffffffffffffffffffffffffffffffff167f81990fd9a5c552b8e3677917d8a03c07678f0d2cb68f88b634aca2022e9bd19f60405160405180910390a2565b60035481565b600a602052816000526040600020818154811061259a57600080fd5b90600052602060002001600091509150505481565b60008160008114806125c2575060025481115b156125f9576040517f720caa4f00000000000000000000000000000000000000000000000000000000815260040160405180910390fd5b600073ffffffffffffffffffffffffffffffffffffffff166007600083815260200190815260200160002060010160009054906101000a900473ffffffffffffffffffffffffffffffffffffffff1673ffffffffffffffffffffffffffffffffffffffff1603612695576040517f720caa4f00000000000000000000000000000000000000000000000000000000815260040160405180910390fd5b60076000848152602001908152602001600020600601544211915050919050565b60055481565b600047905090565b600660009054906101000a900460ff1681565b600a81565b60008054906101000a900473ffffffffffffffffffffffffffffffffffffffff1681565b60008054906101000a900473ffffffffffffffffffffffffffffffffffffffff1673ffffffffffffffffffffffffffffffffffffffff163373ffffffffffffffffffffffffffffffffffffffff1614612785576040517fea8e4eb500000000000000000000000000000000000000000000000000000000815260040160405180910390fd5b6000600b60008373ffffffffffffffffffffffffffffffffffffffff1673ffffffffffffffffffffffffffffffffffffffff16815260200190815260200160002060006101000a81548160ff0219169083151502179055508073ffffffffffffffffffffffffffffffffffffffff167f0d040286ee36c0c225a046c9fb0ee78ee5f136348e5f095b96913dd3549446d260405160405180910390a250565b6301e1338081565b62278d0081565b60086020528060005260406000206000915090508060000154908060010154908060020160009054906101000a900473ffffffffffffffffffffffffffffffffffffffff16908060030154908060040160009054906101000a900460ff16908060050180546128a090614637565b80601f01602080910402602001604051908101604052809291908181526020018280546128cc90614637565b80156129195780601f106128ee57610100808354040283529160200191612919565b820191906000526020600020905b8154815290600101906020018083116128fc57829003601f168201915b50505050509080600601549080600701549080600801805461293a90614637565b80601f016020809104026020016040519081016040528092919081815260200182805461296690614637565b80156129b35780601f10612988576101008083540402835291602001916129b3565b820191906000526020600020905b81548152906001019060200180831161299657829003601f168201915b5050505050905089565b600160009054906101000a900473ffffffffffffffffffffffffffffffffffffffff1681565b60008054906101000a900473ffffffffffffffffffffffffffffffffffffffff1673ffffffffffffffffffffffffffffffffffffffff163373ffffffffffffffffffffffffffffffffffffffff1614612a68576040517fea8e4eb500000000000000000000000000000000000000000000000000000000815260040160405180910390fd5b600073ffffffffffffffffffffffffffffffffffffffff168173ffffffffffffffffffffffffffffffffffffffff1603612ad7576040517f08c379a0000000000000000000000000000000000000000000000000000000008152600401612ace90614571565b60405180910390fd5b80600160006101000a81548173ffffffffffffffffffffffffffffffffffffffff021916908373ffffffffffffffffffffffffffffffffffffffff16021790555050565b600660009054906101000a900460ff1615612b6b576040517f08c379a0000000000000000000000000000000000000000000000000000000008152600401612b6290614463565b60405180910390fd5b806000811480612b7c575060025481115b15612bb3576040517f720caa4f00000000000000000000000000000000000000000000000000000000815260040160405180910390fd5b600073ffffffffffffffffffffffffffffffffffffffff166007600083815260200190815260200160002060010160009054906101000a900473ffffffffffffffffffffffffffffffffffffffff1673ffffffffffffffffffffffffffffffffffffffff1603612c4f576040517f720caa4f00000000000000000000000000000000000000000000000000000000815260040160405180910390fd5b60006007600084815260200190815260200160002090503373ffffffffffffffffffffffffffffffffffffffff168160010160009054906101000a900473ffffffffffffffffffffffffffffffffffffffff1673ffffffffffffffffffffffffffffffffffffffff1614158015612d12575060008054906101000a900473ffffffffffffffffffffffffffffffffffffffff1673ffffffffffffffffffffffffffffffffffffffff163373ffffffffffffffffffffffffffffffffffffffff1614155b15612d49576040517fea8e4eb500000000000000000000000000000000000000000000000000000000815260040160405180910390fd5b8060040160009054906101000a900460ff16612d91576040517f8966b51f00000000000000000000000000000000000000000000000000000000815260040160405180910390fd5b600081600701541115612dd9576040517f08c379a0000000000000000000000000000000000000000000000000000000008152600401612dd090614b9a565b60405180910390fd5b6000816005015442612deb9190614331565b9050600082600501548360060154612e039190614331565b9050600042846006015411612e19576000612e2a565b428460060154612e299190614331565b5b9050600080821115612e545782828660020154612e479190614a45565b612e519190614300565b90505b60008560040160006101000a81548160ff0219169083151502179055506000811115612f435760008560010160009054906101000a900473ffffffffffffffffffffffffffffffffffffffff1673ffffffffffffffffffffffffffffffffffffffff1682604051612ec490614402565b60006040518083038185875af1925050503d8060008114612f01576040519150601f19603f3d011682016040523d82523d6000602084013e612f06565b606091505b5050905080612f41576040517ff499da2000000000000000000000000000000000000000000000000000000000815260040160405180910390fd5b505b8460010160009054906101000a900473ffffffffffffffffffffffffffffffffffffffff1673ffffffffffffffffffffffffffffffffffffffff16877f2e0cc07d3f52587a5bc8ce55ba7d84866dcbb30bd848a202fdb02cb47ce8e5fd83604051612fae91906138b9565b60405180910390a350505050505050565b60008054906101000a900473ffffffffffffffffffffffffffffffffffffffff1673ffffffffffffffffffffffffffffffffffffffff163373ffffffffffffffffffffffffffffffffffffffff1614613044576040517fea8e4eb500000000000000000000000000000000000000000000000000000000815260040160405180910390fd5b6000600660006101000a81548160ff0219169083151502179055503373ffffffffffffffffffffffffffffffffffffffff167f5b65b0c1363b3003db9bcc5e1fd8805a6d6bf5bf6dc9d3431ee4494cd7d1176660405160405180910390a2565b600080600080600060606000808860008114806130c2575060035481115b156130f9576040517f0455eeee00000000000000000000000000000000000000000000000000000000815260040160405180910390fd5b600073ffffffffffffffffffffffffffffffffffffffff166008600083815260200190815260200160002060020160009054906101000a900473ffffffffffffffffffffffffffffffffffffffff1673ffffffffffffffffffffffffffffffffffffffff1603613195576040517f0455eeee00000000000000000000000000000000000000000000000000000000815260040160405180910390fd5b6000600860008c81526020019081526020016000209050806000015481600101548260020160009054906101000a900473ffffffffffffffffffffffffffffffffffffffff1683600301548460040160009054906101000a900460ff16856005018660060154876007015482805461320c90614637565b80601f016020809104026020016040519081016040528092919081815260200182805461323890614637565b80156132855780601f1061325a57610100808354040283529160200191613285565b820191906000526020600020905b81548152906001019060200180831161326857829003601f168201915b50505050509250995099509950995099509950995099505050919395975091939597565b600660009054906101000a900460ff16156132f9576040517f08c379a00000000000000000000000000000000000000000000000000000000081526004016132f090614463565b60405180910390fd5b81600081148061330a575060025481115b15613341576040517f720caa4f00000000000000000000000000000000000000000000000000000000815260040160405180910390fd5b600073ffffffffffffffffffffffffffffffffffffffff166007600083815260200190815260200160002060010160009054906101000a900473ffffffffffffffffffffffffffffffffffffffff1673ffffffffffffffffffffffffffffffffffffffff16036133dd576040517f720caa4f00000000000000000000000000000000000000000000000000000000815260040160405180910390fd5b60006007600085815260200190815260200160002090503373ffffffffffffffffffffffffffffffffffffffff168160010160009054906101000a900473ffffffffffffffffffffffffffffffffffffffff1673ffffffffffffffffffffffffffffffffffffffff161461347d576040517ff9d492db00000000000000000000000000000000000000000000000000000000815260040160405180910390fd5b8060040160009054906101000a900460ff166134c5576040517f8966b51f00000000000000000000000000000000000000000000000000000000815260040160405180910390fd5b80600201543414613502576040517f2c5211c600000000000000000000000000000000000000000000000000000000815260040160405180910390fd5b6000808411613515576301e13380613525565b62015180846135249190614a45565b5b9050600081426135359190614483565b905080836006018190555034600460008282546135529190614483565b92505081905550857f9f04165132ebf9a8d3a35546430e17eeb172110508c6b32ccfa530d2a297c7e08260405161358991906138b9565b60405180910390a2505050505050565b600c6020528160005260406000206020528060005260406000206000915091509054906101000a900460ff1681565b6000806000806000806000806000808a60008114806135e8575060025481115b1561361f576040517f720caa4f00000000000000000000000000000000000000000000000000000000815260040160405180910390fd5b600073ffffffffffffffffffffffffffffffffffffffff166007600083815260200190815260200160002060010160009054906101000a900473ffffffffffffffffffffffffffffffffffffffff1673ffffffffffffffffffffffffffffffffffffffff16036136bb576040517f720caa4f00000000000000000000000000000000000000000000000000000000815260040160405180910390fd5b6000600760008e8152602001908152602001600020905080600001548160010160009054906101000a900473ffffffffffffffffffffffffffffffffffffffff16826002015483600301548460040160009054906101000a900460ff168560050154866006015487600701548860080160009054906101000a900460ff16896006015442119b509b509b509b509b509b509b509b509b509b5050509193959799509193959799565b60076020528060005260406000206000915090508060000154908060010160009054906101000a900473ffffffffffffffffffffffffffffffffffffffff16908060020154908060030154908060040160009054906101000a900460ff16908060050154908060060154908060070154908060080160009054906101000a900460ff16905089565b60025481565b600b6020528060005260406000206000915054906101000a900460ff1681565b6000341161384b576040517f2c5211c600000000000000000000000000000000000000000000000000000000815260040160405180910390fd5b3373ffffffffffffffffffffffffffffffffffffffff167f543ba50a5eec5e6178218e364b1d0f396157b3c8fa278522c2cb7fd99407d4743460405161389191906138b9565b60405180910390a2565b600581565b6000819050919050565b6138b3816138a0565b82525050565b60006020820190506138ce60008301846138aa565b92915050565b600080fd5b600080fd5b6138e7816138a0565b81146138f257600080fd5b50565b600081359050613904816138de565b92915050565b60008115159050919050565b61391f8161390a565b811461392a57600080fd5b50565b60008135905061393c81613916565b92915050565b60008060408385031215613959576139586138d4565b5b6000613967858286016138f5565b92505060206139788582860161392d565b9150509250929050565b600060208284031215613998576139976138d4565b5b60006139a6848285016138f5565b91505092915050565b600080fd5b600080fd5b600080fd5b60008083601f8401126139d4576139d36139af565b5b8235905067ffffffffffffffff8111156139f1576139f06139b4565b5b602083019150836001820283011115613a0d57613a0c6139b9565b5b9250929050565b600080600060408486031215613a2d57613a2c6138d4565b5b6000613a3b868287016138f5565b935050602084013567ffffffffffffffff811115613a5c57613a5b6138d9565b5b613a68868287016139be565b92509250509250925092565b600073ffffffffffffffffffffffffffffffffffffffff82169050919050565b6000613a9f82613a74565b9050919050565b613aaf81613a94565b8114613aba57600080fd5b50565b600081359050613acc81613aa6565b92915050565b600060208284031215613ae857613ae76138d4565b5b6000613af684828501613abd565b91505092915050565b600081519050919050565b600082825260208201905092915050565b6000819050602082019050919050565b613b34816138a0565b82525050565b6000613b468383613b2b565b60208301905092915050565b6000602082019050919050565b6000613b6a82613aff565b613b748185613b0a565b9350613b7f83613b1b565b8060005b83811015613bb0578151613b978882613b3a565b9750613ba283613b52565b925050600181019050613b83565b5085935050505092915050565b60006020820190508181036000830152613bd78184613b5f565b905092915050565b60008083601f840112613bf557613bf46139af565b5b8235905067ffffffffffffffff811115613c1257613c116139b4565b5b602083019150836001820283011115613c2e57613c2d6139b9565b5b9250929050565b60008060008060008060808789031215613c5257613c516138d4565b5b6000613c6089828a016138f5565b9650506020613c7189828a016138f5565b955050604087013567ffffffffffffffff811115613c9257613c916138d9565b5b613c9e89828a016139be565b9450945050606087013567ffffffffffffffff811115613cc157613cc06138d9565b5b613ccd89828a01613bdf565b92509250509295509295509295565b60058110613ce957600080fd5b50565b600081359050613cfb81613cdc565b92915050565b600080600060608486031215613d1a57613d196138d4565b5b6000613d28868287016138f5565b9350506020613d3986828701613cec565b9250506040613d4a868287016138f5565b9150509250925092565b60008060408385031215613d6b57613d6a6138d4565b5b6000613d7985828601613abd565b9250506020613d8a858286016138f5565b9150509250929050565b60008060408385031215613dab57613daa6138d4565b5b6000613db9858286016138f5565b9250506020613dca858286016138f5565b9150509250929050565b613ddd8161390a565b82525050565b6000602082019050613df86000830184613dd4565b92915050565b613e0781613a94565b82525050565b6000602082019050613e226000830184613dfe565b92915050565b6000613e3382613a74565b9050919050565b613e4381613e28565b82525050565b7f4e487b7100000000000000000000000000000000000000000000000000000000600052602160045260246000fd5b60048110613e8957613e88613e49565b5b50565b6000819050613e9a82613e78565b919050565b6000613eaa82613e8c565b9050919050565b613eba81613e9f565b82525050565b600081519050919050565b600082825260208201905092915050565b60005b83811015613efa578082015181840152602081019050613edf565b60008484015250505050565b6000601f19601f8301169050919050565b6000613f2282613ec0565b613f2c8185613ecb565b9350613f3c818560208601613edc565b613f4581613f06565b840191505092915050565b600081519050919050565b600082825260208201905092915050565b6000613f7782613f50565b613f818185613f5b565b9350613f91818560208601613edc565b613f9a81613f06565b840191505092915050565b600061012082019050613fbb600083018c6138aa565b613fc8602083018b6138aa565b613fd5604083018a613e3a565b613fe260608301896138aa565b613fef6080830188613eb1565b81810360a08301526140018187613f17565b905061401060c08301866138aa565b61401d60e08301856138aa565b8181036101008301526140308184613f6c565b90509a9950505050505050505050565b600061010082019050614056600083018b6138aa565b614063602083018a6138aa565b6140706040830189613dfe565b61407d60608301886138aa565b61408a6080830187613eb1565b81810360a083015261409c8186613f17565b90506140ab60c08301856138aa565b6140b860e08301846138aa565b9998505050505050505050565b600581106140d6576140d5613e49565b5b50565b60008190506140e7826140c5565b919050565b60006140f7826140d9565b9050919050565b614107816140ec565b82525050565b600061014082019050614123600083018d6138aa565b614130602083018c613dfe565b61413d604083018b6138aa565b61414a606083018a6138aa565b6141576080830189613dd4565b61416460a08301886138aa565b61417160c08301876138aa565b61417e60e08301866138aa565b61418c6101008301856140fe565b61419a610120830184613dd4565b9b9a5050505050505050505050565b6000610120820190506141bf600083018c6138aa565b6141cc602083018b613dfe565b6141d9604083018a6138aa565b6141e660608301896138aa565b6141f36080830188613dd4565b61420060a08301876138aa565b61420d60c08301866138aa565b61421a60e08301856138aa565b6142286101008301846140fe565b9a9950505050505050505050565b7f416c726561647920766f74656400000000000000000000000000000000000000600082015250565b600061426c600d83613ecb565b915061427782614236565b602082019050919050565b6000602082019050818103600083015261429b8161425f565b9050919050565b7f4e487b7100000000000000000000000000000000000000000000000000000000600052601260045260246000fd5b7f4e487b7100000000000000000000000000000000000000000000000000000000600052601160045260246000fd5b600061430b826138a0565b9150614316836138a0565b925082614326576143256142a2565b5b828204905092915050565b600061433c826138a0565b9150614347836138a0565b925082820390508181111561435f5761435e6142d1565b5b92915050565b7f5265736572766520746f6f206c6f770000000000000000000000000000000000600082015250565b600061439b600f83613ecb565b91506143a682614365565b602082019050919050565b600060208201905081810360008301526143ca8161438e565b9050919050565b600081905092915050565b50565b60006143ec6000836143d1565b91506143f7826143dc565b600082019050919050565b600061440d826143df565b9150819050919050565b7f436f6e7472616374206973207061757365640000000000000000000000000000600082015250565b600061444d601283613ecb565b915061445882614417565b602082019050919050565b6000602082019050818103600083015261447c81614440565b9050919050565b600061448e826138a0565b9150614499836138a0565b92508282019050808211156144b1576144b06142d1565b5b92915050565b82818337600083830152505050565b60006144d28385613ecb565b93506144df8385846144b7565b6144e883613f06565b840190509392505050565b60006040820190506145086000830186613eb1565b818103602083015261451b8184866144c6565b9050949350505050565b7f496e76616c696420616464726573730000000000000000000000000000000000600082015250565b600061455b600f83613ecb565b915061456682614525565b602082019050919050565b6000602082019050818103600083015261458a8161454e565b9050919050565b600061459c826138a0565b91507fffffffffffffffffffffffffffffffffffffffffffffffffffffffffffffffff82036145ce576145cd6142d1565b5b600182019050919050565b7f4e487b7100000000000000000000000000000000000000000000000000000000600052604160045260246000fd5b7f4e487b7100000000000000000000000000000000000000000000000000000000600052602260045260246000fd5b6000600282049050600182168061464f57607f821691505b60208210810361466257614661614608565b5b50919050565b60008190508160005260206000209050919050565b60006020601f8301049050919050565b600082821b905092915050565b6000600883026146ca7fffffffffffffffffffffffffffffffffffffffffffffffffffffffffffffffff8261468d565b6146d4868361468d565b95508019841693508086168417925050509392505050565b6000819050919050565b600061471161470c614707846138a0565b6146ec565b6138a0565b9050919050565b6000819050919050565b61472b836146f6565b61473f61473782614718565b84845461469a565b825550505050565b600090565b614754614747565b61475f818484614722565b505050565b5b818110156147835761477860008261474c565b600181019050614765565b5050565b601f8211156147c85761479981614668565b6147a28461467d565b810160208510156147b1578190505b6147c56147bd8561467d565b830182614764565b50505b505050565b600082821c905092915050565b60006147eb600019846008026147cd565b1980831691505092915050565b600061480483836147da565b9150826002028217905092915050565b61481d82613ec0565b67ffffffffffffffff811115614836576148356145d9565b5b6148408254614637565b61484b828285614787565b600060209050601f83116001811461487e576000841561486c578287015190505b61487685826147f8565b8655506148de565b601f19841661488c86614668565b60005b828110156148b45784890151825560018201915060208501945060208101905061488f565b868310156148d157848901516148cd601f8916826147da565b8355505b6001600288020188555050505b505050505050565b60008190508160005260206000209050919050565b601f82111561493c5761490d816148e6565b6149168461467d565b81016020851015614925578190505b6149396149318561467d565b830182614764565b50505b505050565b61494a82613f50565b67ffffffffffffffff811115614963576149626145d9565b5b61496d8254614637565b6149788282856148fb565b600060209050601f8311600181146149ab5760008415614999578287015190505b6149a385826147f8565b865550614a0b565b601f1984166149b9866148e6565b60005b828110156149e1578489015182556001820191506020850194506020810190506149bc565b868310156149fe57848901516149fa601f8916826147da565b8355505b6001600288020188555050505b505050505050565b6000604082019050614a2860008301866138aa565b8181036020830152614a3b8184866144c6565b9050949350505050565b6000614a50826138a0565b9150614a5b836138a0565b9250828202614a69816138a0565b91508282048414831517614a8057614a7f6142d1565b5b5092915050565b7f436f76657261676520746f6f206869676820666f72207072656d69756d000000600082015250565b6000614abd601d83613ecb565b9150614ac882614a87565b602082019050919050565b60006020820190508181036000830152614aec81614ab0565b9050919050565b6000606082019050614b0860008301866138aa565b614b1560208301856138aa565b614b2260408301846140fe565b949350505050565b60006020820190508181036000830152614b458184866144c6565b90509392505050565b7f506f6c696379206861732061637469766520636c61696d730000000000000000600082015250565b6000614b84601883613ecb565b9150614b8f82614b4e565b602082019050919050565b60006020820190508181036000830152614bb381614b77565b905091905056fea2646970667358221220c88671752d826229534c412825d8d513d707bbb967e2168b580b8b6f92c8fba464736f6c63430008140033",
  "linkReferences": {},
  "deployedLinkReferences": {}
}